:020000040800F2
:10000000189C0020DD010008A32700082522000815
:10001000A1270008A9090008FD360008000000001B
:100020000000000000000000000000004501000882
:10003000EF09000800000000890100089132000863
:10004000F7010008F7010008F7010008F7010008B0
:10005000F7010008F7010008F7010008F7010008A0
:10006000F7010008F7010008F7010008AD090008D2
:10007000F7010008B9090008F7010008F7010008B6
:10008000F7010008F7010008F7010008F701000870
:10009000F7010008F7010008F7010008F701000860
:1000A000F7010008F7010008F7010008F701000850
:1000B000F7010008F7010008F7010008F701000840
:1000C000F7010008F7010008F7010008F701000830
:1000D000F7010008F7010008F7010008F9360008E9
:1000E000F7010008F7010008F7010008F701000810
:1000F000F7010008F7010008F7010008F701000800
:10010000F7010008F7010008F7010008F7010008EF
:10011000F7010008F7010008F7010008F7010008DF
:10012000F7010008F7010008F7010008F7010008CF
:10013000DFF80CD000F092F800480047DD4C0008D2
:10014000189C0020224B19680868B0E8F00F80F373
:100150000988BFF36F8F4FF0000080F311884EF0D5
:100160000D0E70470000000006480068006880F32C
:10017000088862B661B6BFF34F8FBFF36F8F00DFA1
:1001800000BF00BF08ED00E0EFF30980BFF36F8F01
:100190000F4B1A6820E9F00F106008B54FF05000BF
:1001A00080F31188BFF34F8FBFF36F8F08F078FA99
:1001B0004FF0000080F31188BDE808401968086816
:1001C000B0E8F00F80F30988BFF36F8F704700BF6E
:1001D000EC000020EFF305807047000006488047E0
:1001E00006480047FEE7FEE7FEE7FEE7FEE7FEE71C
:1001F000FEE7FEE7FEE7FEE71933000831010008DD
:1002000040EA01039B0703D009E008C9121F08C098
:10021000042AFAD203E011F8013B00F8013B521E18
:10022000F9D27047D2B201E000F8012B491EFBD28F
:1002300070470022F6E710B513460A4604461946F1
:10024000FFF7F0FF204610BD034611F8012B00F820
:10025000012B002AF9D1184670470000064C074DC3
:1002600006E0E06840F0010394E807009847103486
:10027000AC42F6D3FFF760FF3C0401085C040108C0
:1002800070B58C1810F8015B15F0070301D110F858
:10029000013B2A1106D110F8012B03E010F8016B85
:1002A00001F8016B5B1EF9D12B0705D40023521E08
:1002B0000DD401F8013BFAE710F8013BCB1A921C70
:1002C00003E013F8015B01F8015B521EF9D5A1426E
:1002D000D8D3002070BD000070B504460068816866
:1002E000C943C9071CD1816821F00101816001F077
:1002F00009F805460FE000BF01F004F8401B022892
:1003000009D9A06A40F01000A062E06A40F0010044
:10031000E062012070BD20688068C043C007EBD058
:10032000002070BD10B50146406A826A12F0500F7D
:1003300005D0006A026BBDE8104008461047816A8C
:1003400041F40071816201688968C1F34241072963
:100350000CD1C16851B9816A21F480718162816ACE
:10036000C90403D4816A41F00101816200F0BEFB3F
:1003700010BD10B5406A816A41F040018162C16AD6
:1003800041F00401C16200F0B3FB10BD10B5406A3A
:1003900000F0ADFB10BD0000F8B500260446009645
:1003A00000688168C943C90728D0816841F001010C
:1003B0008160134813490068B0FBF1F000E0401E73
:1003C00000900028FBD100F09DFF054611E000BF22
:1003D00000F098FF401B02280BD9A06A40F01000E3
:1003E000A062E06A40F00100E06284F8246001202D
:1003F000F8BD20688068C043C007E9D10020F8BD7F
:10040000C000002040420F0005F08CBB70B5FFF724
:10041000FBFF024624231949002002F02FFD012290
:10042000174DD4022146284600F067FF022005F050
:100430006DFB012296023146284600F05EFF022045
:1004400005F064FB00223146284600F056FF0220EA
:1004500005F05CFB00222146284600F04EFF0220FA
:1004600005F054FB40220521232003F06BFE04F02D
:1004700091FABDE8704006F06FBE0000000101086F
:100480000014014010B500224FF40061044800F050
:1004900034FFBDE810400021024801F02FBE0000EB
:1004A000001401408803002010B50A4C0122D1023B
:1004B000204600F022FF032005F028FB00226115F2
:1004C000204600F01AFFBDE810400021024801F06C
:1004D000F9BD0000001401408803002010B50A4C4B
:1004E0000122D102204600F008FF032005F00EFB98
:1004F00001225102204600F000FFBDE8104000211B
:10050000024801F0DFBD0000001401408803002014
:1005100000220221014800F0F0BE00000018014056
:1005200001220221014800F0E8BE0000001801404D
:100530000221014800F0DCBE0020014001210148F9
:1005400000F0D6BE0020014005F0B8B810B5012477
:100550002103114800F0CCFE00281BD1FFF754FF07
:100560000246C6230DA1002002F088FC02F02AF901
:100570001748C16919B9816909B9006A50B1FFF713
:1005800043FF0246CA2313A1002002F077FC002497
:10059000FFF73CFF204610BD001401401B5B313BC0
:1005A00033316D5B2538645D5B4253505D5B455272
:1005B000524F525D6C696E653A25640D0A383731C9
:1005C00031204661756C74EFBC810D0A000000009B
:1005D000A40400201B5B313B33316D5B2538645D27
:1005E0005B4253505D5B4552524F525D6C696E6584
:1005F0003A25640D0A38373131204F4350206F724D
:10060000204F545320E99499E8AFAFEFBC810D0A15
:100610000000000010B54021034800F069FE0028EA
:1006200000D0012010BD00000018014010B54FF4AB
:100630000041034800F05CFE002800D0012010BDFE
:100640000010014010B50121034800F051FE0028C0
:1006500000D0012010BD0000001C014010B5022197
:10066000034800F045FE002800D0012010BD000026
:10067000001C014010B54FF40051034800F038FE53
:10068000002800D0012010BD001C014010B54FF41F
:100690000041034800F02CFE002800D0012010BDCE
:1006A000001C014010B54FF48041034800F020FECB
:1006B000002800D0012010BD001C014010B54FF4EF
:1006C0000051034800F014FE002800D0012010BDA6
:1006D0000010014000220121014800F00EBE000080
:1006E0000018014001221146014800F006BE00003A
:1006F0000018014010B5FFF787FE02464FF4AB73B8
:1007000008A1002002F0BAFB144C002280212046F0
:1007100000F0F3FD0022A1152046BDE8104000F0D6
:10072000ECBD00001B5B313B33326D5B2538645DF3
:100730005B4253505D5B494E464F5D6C696E653A56
:1007400025640D0AE58D87E9998DE997A8E696ADB0
:10075000E794B5EFBC810D0A00000000000C0140D9
:1007600010B5FFF751FE02464FF4A77309A1002010
:1007700002F084FB154C00228021204600F0BDFDD4
:10078000322005F0C3F920460122BDE810401102D5
:1007900000F0B3BD1B5B313B33326D5B2538645DCC
:1007A0005B4253505D5B494E464F5D6C696E653AE6
:1007B00025640D0AE58D87E9998DE997A8E58F8D68
:1007C000E8BDACEFBC810D0A00000000000C014048
:1007D00010B5FFF719FE024640F247130AA10020A8
:1007E00002F04CFB164C00224FF48071204600F0C2
:1007F00084FD322005F08AF920460122BDE8104030
:10080000802100F07ABD00001B5B313B33326D5B11
:100810002538645D5B4253505D5B494E464F5D6CCD
:10082000696E653A25640D0AE58D87E9998DE9972A
:10083000A8E6ADA3E8BDACEFBC810D0A0000000046
:10084000000C014010B5064C00222021204600F08B
:1008500054FD20460022BDE81040402100F04DBD6F
:10086000000C014010B5084C00222021204600F069
:1008700044FD322005F04AF920460122BDE810402F
:10088000402100F03ABD0000000C014010B5084CBA
:1008900000224021204600F030FD322005F036F9DC
:1008A00020460122BDE81040202100F026BD0000B6
:1008B000000C014010B5FFF7A7FD02461C230849B4
:1008C000002002F0DBFA00224FF48071054800F0AE
:1008D00014FD0122BDE810405102034800F00DBD97
:1008E00044010108000801400010014010B5042136
:1008F000054801F003FCBDE8104000224FF4807170
:10090000024800F0FABC0000880300200008014003
:1009100010B5FFF7EBFF012214022146084800F052
:10092000ECFC00222146074800F0E7FC142005F00B
:10093000EDF8BDE810400421034801F0C3BB0000FE
:1009400000080140001001408803002010B5FFF7A7
:10095000CDFF012214022146084800F0CEFC0122FE
:100960002146074800F0C9FC142005F0CFF8BDE887
:1009700010400421034801F0A5BB0000000801401D
:10098000001001408803002000220421014800F0EB
:10099000B4BC00000018014001220421014800F00D
:1009A000ACBC000000180140FEE70000014800F068
:1009B0000DBA0000D0010020014800F007BA000085
:1009C000C402002030B590F840500124AC40C56B03
:1009D0006C60046863604368102B036803D09960FF
:1009E0000068C26030BD9A600068C16030BD704769
:1009F000F8B50024009490F824202546012A12D04E
:100A0000012280F824204A681F23072A0DD2066895
:100A1000776B521E02EB820293409F430B68934018
:100A20001F43776319E00220F8BD06680D2A0AD239
:100A3000376BD21F02EB820293409F430B689340B7
:100A40001F43376309E0F76A0D3A02EB82029340D5
:100A50009F430B6893401F43F7620A6807230668A9
:100A60000A2A0AD3F7680A3A02EB420293409F43EC
:100A70008B6893401F43F76008E0376902EB42023E
:100A800093409F438B6893401F4337610A68102A45
:100A900001D0112A20D1124B02689A4217D19368D3
:100AA0001B0219D4936843F400039360096810296A
:100AB00012D10C490C4A0968B1FBF2F101EB81013A
:100AC000490000E0491E00910029FBD104E0816A41
:100AD00041F020018162012480F824502046F8BDB5
:100AE00000240140C000002040420F0070477047C2
:100AF000704700002DE9F04104004FF000057FD061
:100B0000A06A002628B9E66284F82460204600F036
:100B100081F82046FFF7E0FBA16AC90600D420B1A6
:100B2000A06A40F01000A0626AE0A16A21F4885136
:100B300041F00201A162334923688B42E16904D18B
:100B4000B1F5402F01D14FF40021E7684FF4807CCC
:100B500041EA470261680A43A168614508D001295A
:100B600006D00021D4F814E0BEF1010F02D00AE053
:100B70006146F7E7C7B1A76A47F02007A762E76AAF
:100B800047F00107E7625F6827F469470F435F603A
:100B9000236899681C4F394011439960A1686145E9
:100BA0000BD0012909D00CE0DFF860E0A7690EEB5B
:100BB00047370F4347F40061E5E7218A0D05A5F5A6
:100BC00080152168CB6A23F470032B43CB62216824
:100BD00089680F4B1940914208D1E662A16A21F061
:100BE000020141F00101A162BDE8F081A06A20F09C
:100BF000020040F01000A062E06A40F00100E062F4
:100C00000120F1E7003C0140FDF7E1FF00E0FFFFBC
:100C1000FE0E1FFF30B5054600681E4985B08842AC
:100C200036D11D48816941F40071816180690324D6
:100C300000F4007004904020CDE900046946174894
:100C400000F062FA3020CDE900046946144800F053
:100C50005BFA009469461348019400F055FA134C6E
:100C600011488021206000206060C4E90201490031
:100C70002161890061612021C4E90610204600F04D
:100C8000C9F918B1AD210AA002F0FAFD2C62656223
:100C900005B030BD002401400010024000080140B2
:100CA00000100140000C014008000240D00100206B
:100CB0002E2E2F5372632F6164632E630000000099
:100CC0002DE9F047894604463B4900683B4F0E1D1D
:100CD0009046884201D0B84207D1306810F4702F96
:100CE00003D001252846BDE8F08794F824000128A8
:100CF0000CD0012084F824002046FFF74DFB0500AE
:100D00004FF0000004D084F82400EBE70220EAE76B
:100D1000A16A40F60162914341F48071A1622168A9
:100D2000B94218D1326812F4702F14D0A16A41F47C
:100D30008011A1623168490505D5A16A21F40051ED
:100D400041F48051A162A16AC9040AD5E16A21F087
:100D50000601E16206E0A26A22F48012A2624968FA
:100D6000E9E7E06284F82400216A15488862216A74
:100D70001448C862216A1448086321686FF00200B1
:100D800008602068816841F4807181602168434671
:100D90004A464C31206A00F07FF920688168C1F32F
:100DA00042410729816803D041F48011816099E7AD
:100DB00041F4A001FAE700000024014000280140AE
:100DC000250300088D030008730300082DE9F05F78
:100DD000C16B0A6801680B68046C4FF0040808FADC
:100DE00004F8844D844E854FDFF814C2DFF8149266
:100DF000DFF814A2DFF814B2DFF814E218EA020FE9
:100E000065D05FEA437862D50A68920603D40A681F
:100E100022F004020A60DFF8F0814FF4806201687A
:100E200008F1140813011402414524D9A9420DD038
:100E3000B1420FD0B9421AD0614515D0494515D0FD
:100E4000514501D1120312E0594501D104220EE0AF
:100E5000714501D140220AE06D4D1435A94206D0FA
:100E60006B4A2832914201D11A4600E02246674976
:100E7000091F0A6029E0A94213D0B14215D0B94236
:100E800020D061451BD049451BD0514502D14FF4BC
:100E9000800217E0414502D14FF0806212E05945CF
:100EA00001D104220EE0714501D140220AE0584DE3
:100EB0001435A94206D0564A2832914201D11A4629
:100EC00000E022464B4908394A60C16A71E04FF0A0
:100ED000020808FA04F818EA020F70D05FEA837873
:100EE0006DD50A68920606D40A6822F00A020A60E2
:100EF000012180F82110DFF810814FF400720168A1
:100F000008F1140813011402414524D9A9420DD057
:100F1000B1420FD0B9421AD0614515D0494515D01C
:100F2000514501D1120312E0594501D102220EE0D0
:100F3000714501D120220AE0354D1435A94206D071
:100F4000334A2832914201D11A4600E022462F4905
:100F5000091F0A6029E0A94213D0B14215D0B94255
:100F600020D061451BD049451BD0514502D14FF4DB
:100F7000001217E0414502D14FF0007212E05945CE
:100F800001D102220EE0714501D120220AE0204D5C
:100F90001435A94206D01E4A2832914201D11A4680
:100FA00000E02246134908394A60002180F82010E9
:100FB000816A00291CD0BDE8F05F0847FFE70825DB
:100FC000A540154214D01A0712D50A6822F00E0265
:100FD0000A6090F84020C36B012101FA02F25A60C6
:100FE000816380F82110002180F82010016BE0E778
:100FF000BDE8F09F080002401C00024030000240A3
:1010000044000240580002406C00024008040240C4
:101010001C04024030B560B11C4A0368142193429D
:1010200009D21B4A1A44B2FBF1F189000164194943
:101030000AE0012030BD154A52421A44B2FBF1F1D8
:101040008900016411490839C163022180F8211027
:101050001A6843F6F0718A43F0E901142143D0E99C
:1010600002452C4321430469214344692143846997
:10107000214311431960002141628162C162016311
:101080004163012242770177084630BD08040240DF
:10109000F8FFFDBF0000024070B5044690F8200044
:1010A000002501280CD0012084F8200094F821604C
:1010B0000020012E06D084F820000225284670BDAD
:1010C000022070BD022684F82160A06320680668B3
:1010D00026F0010606602046FFF774FCE06A00284F
:1010E0002068016802D041F00E0106E021F0040101
:1010F00001602068016841F00A0101602068016810
:1011000041F001010160D9E72DE9F84FDFF8B8A1FE
:1011100000220AF1040B144601274FF00F090BF1CE
:10112000040E00BF0B6807FA04F52B40AB4274D1E4
:10113000DFF898C14E68A6EB0C0866452BD00DDC95
:10114000032E34D005DC36B3012E19D0022E2FD158
:101150001BE0112E16D0122E2AD119E0B8F5881FE7
:1011600019D006DCB8F5803F15D0B8F5801F1FD127
:1011700011E0B8F5001F0ED0B8F5041F18D10AE031
:10118000CA6815E0CA68121D12E0CA6808320FE08A
:10119000CA680C320CE08A682AB1012A4FF00802B2
:1011A00003D0456104E0042202E0056100E0002272
:1011B000FF2B01D8064601E000F104064FEA840542
:1011C00001D9A5F12005D6F800C009FA05F82CEAE6
:1011D000080C02FA05F54CEA050CC6F800C04D688B
:1011E000ED006AD53A4DAE6946F00106AE61AD69D3
:1011F00024F0030605F001050095364D06EB050CBD
:10120000DCF80850A6074FEA167809FA08F6B54345
:10121000314EB04202D100261AE04EE02F4EB042CD
:1012200001D1012614E02E4EB04201D102260FE07A
:101230002C4EB04201D103260AE02B4EB04201D120
:10124000042605E0294EB04201D1052600E006261D
:1012500006FA08F62E43CCF808604D68DAF800600C
:10126000ED03554601D51E4300E09E432E604D68B8
:10127000AD0305D5DBF800601E43CBF8006004E049
:10128000DBF800509D43CBF800504D68DEF800605D
:10129000ED02754601D51E4300E09E432E604D6869
:1012A000AD0205D5084D0C352E681E432E6004E0B6
:1012B000054E0C3635689D433560641C102CFFF4D8
:1012C00031AFBDE8F88F00000004014000001110AC
:1012D000001002400000014000080140000C0140E5
:1012E000001001400014014000180140001C0140A2
:1012F0008068084000D0012070470AB10161704742
:101300000904FBE70148006870470000BC000020AA
:1013100002480168491C016070470000BC000020C1
:10132000074810B5016841F010010160032000F08A
:101330008BF80F2000F006F800F018F8002010BD20
:101340000020024010B5044607484FF47A71006847
:10135000B0FBF1F000F08AFD00222146501E00F0A3
:1013600053F8002010BD0000C00000201E4808B542
:10137000816941F001018161806900F00100009004
:10138000032000F061F8002211466FF00B0000F01E
:101390003BF8002211466FF00A0000F035F80022F9
:1013A00011466FF0090000F02FF800221146501F7F
:1013B00000F02AF800221146101F00F025F8002244
:1013C0000F21901E00F020F800220F21501E00F087
:1013D0001BF80648416821F0E0614160416841F036
:1013E0000071416008BD0000001002400000014093
:1013F00000F01F02012191404009800000F1E0202F
:10140000C0F8001170470000F0B40E4B1B680C468A
:10141000C3F30223C3F10705042D00D90425191DC8
:10142000072901D2002300E0DB1E012606FA05F1A0
:10143000491E214099409E40761E16403143F0BC23
:1014400001F0B0B90CED00E0064900F007020868B1
:101450004FF6FF03184040EA0220034A1043086099
:10146000704700000CED00E00000FA052DE9F8439C
:1014700005460078354CC00754D0E0690026C0000E
:1014800008D4E06940F08050E061E069012600F096
:10149000805000902E480168C90512D4016880462A
:1014A00041F480710160FFF72DFF074605E000BFA2
:1014B000FFF728FFC01B642823D8D8F80000C00518
:1014C000F6D5206A10F4407021D0A98801F440714B
:1014D00081421CD0206A1F49012220F440700A601A
:1014E00000220A602062C00711D0FFF70BFF0746F9
:1014F00041F2883808E000BFFFF704FFC11B4145F7
:1015000002D90320BDE8F883206A8007F4D5206A59
:10151000696820F44070084320621EB1E06920F041
:101520008050E0612878800705D56068A96820F4BC
:101530004040084360602878C00605D56068696946
:1015400020F48000084360600020DBE700100240C8
:1015500000700040400442422DE9F047DFF83C8132
:1015600005460E46D8F8000000F00700B0420CD245
:10157000D8F8001021F007013143C8F80010D8F85E
:10158000000000F00700B04263D12878444C800787
:1015900005D56068A96820F0F000084360602878ED
:1015A000C00745D06868012816D02168022816D0E7
:1015B000890700294DDA616821F003010143616068
:1015C000FFF7A0FE6968074641F2883001290FD075
:1015D0000229814619D027E021688903E9E78901BA
:1015E000E7E700BFFFF78EFEC11B494501D918E0B0
:1015F00081466068C0F381000128F3D118E000BF84
:10160000FFF780FEC11B49450BD86068C0F381001D
:101610000228F5D10CE000BFFFF774FEC11B49455D
:1016200002D90320BDE8F087606810F00C0FF3D1F9
:10163000D8F80010404601F00701B1420BD901680B
:1016400021F0070131430160006800F00700B0425B
:1016500001D00120E6E72878400705D56068E968F1
:1016600020F4E060084360602878000706D56068D1
:10167000296920F4605040EAC100606000F03CF845
:101680006168084AC1F30311515CC840064908600B
:101690000F20FFF757FE0020C4E7000000200240A3
:1016A00000100240DCA30008C000002001480068D0
:1016B00070470000C00000200448054900684968E0
:1016C000044AC1F30221515CC8407047C0000020A9
:1016D00000100240ECA3000804480549006849686E
:1016E000044AC1F3C221515CC8407047C0000020C9
:1016F00000100240ECA3000810B512A385B00FCB78
:101700008DE80F0013A0144B006804905A6813482A
:1017100002F00C0104290FD008290DD1C2F3834433
:10172000D2031DF8041009D55A6804ABC2F3404235
:101730009A5CB0FBF2F0484305B010BD084848433E
:10174000FAE7000002030405060708090A0B0C0D5E
:101750000E0F1010010200000010024000127A006B
:1017600000093D002DE9F84F04460078B94DC00747
:1017700048D06868C0F38100012807D06868C0F3CA
:101780008100022809D16868C00306D52868800353
:1017900038D5606800286FD034E06068B0F5803FCD
:1017A0000BD010B1B0F5A02F11D0286820F48030F4
:1017B0002860286820F4802002E0286840F4803007
:1017C0002860606888B1FFF79DFD064609E028683B
:1017D00040F480202860F0E7FFF794FD801B642828
:1017E00075D828688003F7D50CE0FFF78BFD064617
:1017F00005E000BFFFF786FD801B6428F0D828684D
:101800008003F7D42078944E80074FF001094FF001
:1018100000083BD5686810F00C0F07D06868C0F36B
:101820008100022809D16868C00306D428688007AF
:1018300014D5206901281FD110E02069B0B1C6F885
:101840000090FFF75FFD074605E000BFFFF75AFD78
:10185000C01B0228C4D828688007F7D528686169AA
:1018600020F0F80040EAC10028600FE0C6F80080D0
:10187000FFF748FD074606E0E9E000BFFFF742FD3D
:10188000C01B022823D828688007F7D420780007D7
:101890002CD57248A169D9B1C0F80090FFF732FD8C
:1018A000074604E0FFF72EFDC01B02280FD8686A28
:1018B0008007F7D56A484FF4FA510068B0FBF1F0A1
:1018C000009000BF0098411E0091FAD20EE080E027
:1018D000C0F80080FFF716FD074604E0FFF712FD91
:1018E000C01B022875D8686A8007F7D420784007A3
:1018F00060D5E8690027C00008D4E86940F080504E
:10190000E861E869012700F08050009055480168BF
:10191000C90513D40168834641F480710160FFF763
:10192000F1FC824606E000BFFFF7ECFCA0EB0A00EA
:1019300064284ED8DBF80000C005F5D5E068012822
:101940000AD008B1052813D0286A20F001002862C7
:10195000286A20F0040002E0286A40F001002862B2
:10196000E06841F2883B98B1FFF7CCFC82460BE07F
:10197000286A40F004002862EEE700BFFFF7C2FCCF
:10198000A0EB0A0159455AD8286A8007F6D50CE021
:10199000FFF7B8FC824605E0FFF7B4FCA0EB0A01B4
:1019A00059454CD8286A8007F6D41FB1E86920F061
:1019B0008050E861E06988B36968C1F38101022958
:1019C00045D00228C6F8608004D0FFF79BFC04468F
:1019D00038E034E0FFF796FC074604E0FFF792FC9E
:1019E000C01B02282BD828688001F7D4206AB0F5E4
:1019F000803F05D16868A16820F400300843686022
:101A0000D4E908010843696821F474110843686047
:101A1000C6F86090FFF776FC044606E015E000BFCC
:101A2000FFF770FC001B022809D828688001F7D551
:101A30000BE000BFFFF766FC001B022802D9032061
:101A4000BDE8F88F28688001F4D40020F8E7012071
:101A5000F6E70000001002400000424280044242CB
:101A6000C000002000700040704770B5040005D031
:101A70000025A56294F8510010B104E0012070BD6A
:101A8000204600F033F8022084F8510020680168F5
:101A900021F040010160D4E901010843D4E90312B7
:101AA0001143084361690843218B01F40071084325
:101AB000E1690843216A0843A16A08432168086074
:101AC000A069042101EA1040616A08432168486066
:101AD0002168E06A08612068C16921F40061C16180
:101AE0006565012084F85100002070BD70B5064680
:101AF000284C0368002528490220032286B0A3420F
:101B000027D18B6943F480538B618969039201F477
:101B100080510491A021CDE9001069461F48FFF7CC
:101B2000F3FA204C1E4820601020C4E901058020F3
:101B3000C4E903056561A5612046E561FFF76AFA1E
:101B400018B18E2118A001F09BFEB464666206B045
:101B500070BD194CA342FAD1CB6943F48043CB61E9
:101B6000C969164C01F4804104914FF42041CDE93C
:101B70000010039269462046FFF7C6FA4FF48040F2
:101B8000CDE900050120029069462046FFF7BCFA26
:101B9000DDE7000000300140001002400008014075
:101BA00030000240C40200202E2E2F5372632F7388
:101BB00070692E630000000000380040000C0140F6
:101BC0002DE9F84F044690F8500000260A9F9A46E7
:101BD00093460D464FF0010801280ED0012084F8ED
:101BE0005000FFF78FFB814694F85100616801288F
:101BF0000CD0B1F5827F07D102E00220BDE8F88F5A
:101C0000A16809B9042801D00226BDE055B1BBF195
:101C1000000F07D0BAF1000F04D094F8510001284A
:101C200002D004E00126AFE0052084F85100002036
:101C30006065C4F838B0A4F83EA0A4F83CA02563C1
:101C4000A4F836A0A4F834A0206460642068016879
:101C5000490603D4016841F040010160E068B0F535
:101C6000006F606804D0E8B3E08E01283BD06AE0E2
:101C700010B1E08E01282ED1216835F8020BC86022
:101C8000E08E401EE08626E0B8F1000F0DD0E08E19
:101C900058B120688168890707D535F8021BC160F3
:101CA000E08E401EE0864FF00008E08F58B12068BB
:101CB0008168C90707D0C0682BF8020BE08F401E6F
:101CC000E0874FF00108781C05D0FFF71BFBA0EB65
:101CD0000900B84246D2E08E0028D5D1E08F002816
:101CE000D2D136E0FFE7216815F8010B0873E08ECA
:101CF000401EE08627E000BFB8F1000F0DD0E08E57
:101D000058B120688168890707D515F8011B017350
:101D1000E08E401EE0864FF00008E08F58B120684A
:101D20008168C90707D0C0680BF8010BE08F401E1F
:101D3000E0874FF00108781C05D0FFF7E3FAA0EB2D
:101D40000900B8420ED2E08E0028D5D1E08F0028DD
:101D5000D2D13B46012202212046CDF8009001F06D
:101D600035FA08B103260FE04A463946204601F00D
:101D7000B3F918B101262020606505E0A06818B904
:101D80002068C16880680090012084F8510000201C
:101D900084F85000304631E770B5044690F85000A2
:101DA0000026012809D0012084F8500094F8510041
:101DB0000025012803D002263FE0022070BD89B132
:101DC00082B1032084F8510065652163A286E28612
:101DD000A56365642564A587E587A068B0F5004F15
:101DE00002D006E0012628E02068016841F4804125
:101DF0000160A16C1348C862A16C13488862A16C91
:101E000012480863A06C4563E38E2268216B0C3294
:101E1000A06CFFF741F920680168490603D4016806
:101E200041F0400101602068416841F020014160BB
:101E30002068416841F00201416084F8505030460A
:101E400070BD00001B31000825310008F930000882
:101E5000704770474FF0E0210428086903D020F054
:101E600004000861704740F00400FAE710B5401E16
:101E7000B0F1807F01D3012010BD4FF0E0246061FC
:101E80000F21601700F08EFC0020A0610720206168
:101E9000002010BD10B590F83C20012A25D0012269
:101EA00080F83C20CA688C6822F4407222434C6857
:101EB00022F4806222430C6822F4006222430C69FF
:101EC00022F4805222434C6922F4005222438C694E
:101ED00022F48042224322F400410268002321437D
:101EE000516480F83C30002010BD022010BD30B598
:101EF00090F83C20012A20D0012280F83C200223C7
:101F000080F83D3003685C6824F070045C6003680E
:101F10005C680D682C435C6003689C6824F0800456
:101F20009C6003689C6849680C439C6080F83D2075
:101F3000002180F83C10084630BD022030BD000072
:101F40001FB501680220B1F1804F0CD0094A9142BF
:101F500008D1C021CDE9001003900748694600BFB1
:101F6000FFF7D2F81FBD0C21CDE9001003906946A0
:101F70000248F5E70034014000100140000801402C
:101F800070B5044690F83C000D4601280DD001269E
:101F900084F83C60022084F83D0042B1042A18D045
:101FA000082A2AD00C2A4DD139E0022070BD2068C1
:101FB00001F028FA2068816941F0080181612068F8
:101FC000816921F004018161206881692A691143D6
:101FD00011E0206801F046FA2068816941F400614F
:101FE00081612068816921F4806181612068816953
:101FF0002A6941EA0221816124E0206801F068FA3F
:102000002068C16941F00801C1612068C16921F0FF
:102010000401C1612068C1692A69114311E0206887
:1020200001F08AFA2068C16941F40061C161206849
:10203000C16921F48061C1612068C1692A6941EAEE
:102040000221C16184F83D60002084F83C0070BD2D
:1020500010B5040003D094F83D0010B107E0012052
:1020600010BD002084F83C00204600F00DF802204E
:1020700084F83D00211D206801F072F9012084F8E8
:102080003D00002010BD000008B501680B48B1F10B
:10209000804F0BD00A4A914207D1816941F4005127
:1020A0008161806900F40050009008BDC16941F071
:1020B0000101C161C06900F00100F5E700100240B4
:1020C0000034014010B504460068012201F08EF989
:1020D00008492068884202D00749884203D1416CF0
:1020E00041F4004141642068016841F00101016050
:1020F000002010BD002C01400034014010B5044602
:102100000068002201F072F9114841F211122168B1
:102110009310814202D00F48814209D1086A1042CF
:1021200006D1086A184203D1486C20F40040486484
:102130002068016A114206D1016A194203D101687F
:1021400021F001010160012084F83D00002010BD54
:10215000002C01400034014070B5040004D094F814
:102160003900002510B106E0012070BD84F8385018
:10217000204600F023F8242084F839002068C16844
:1021800021F40051C160204601F0FEF92068016988
:1021900021F4904101612068416921F02A014161E7
:1021A0002068C16841F40051C160E563202084F8D3
:1021B000390084F83A00002070BD000010B50068B6
:1021C000154986B0884225D11448C16941F480215F
:1021D000C161C069124C00F4802004904FF480600B
:1021E0000090022001900320039069462046FEF7EC
:1021F0008BFF0021E014CDE90001029169462046E1
:10220000FEF782FF002205212720FFF7FDF8272097
:10221000FFF7EEF806B010BD004800400010024085
:10222000000C0140FEE700003EB52D482B49052477
:102230000160891581600021C16041614FF4602215
:102240000461C2614160FEF755FC18B14F2125A021
:1022500001F016FB0620009001200325CDE90105C1
:1022600069461F48FEF7C4FB18B159211DA001F0B3
:1022700007FB082000900220019069461848FEF7ED
:10228000B7FB18B1622117A001F0FAFA0920CDE9D5
:10229000000569461248FEF7ABFB18B16B2111A08F
:1022A00001F0EEFA0E2000900420019069460C48DF
:1022B000FEF79EFB18B174210AA001F0E1FA0F208D
:1022C000CDE9000469460648FEF792FB002803D0DA
:1022D0007D2104A001F0D4FA3EBD0000002401409D
:1022E000A00100202E2E2F5372632F6164632E6392
:1022F000000000000D4808B5416941F0010141614D
:102300004069002200F00100009005210B20FFF73A
:102310007BF80B20FFF76CF8002205210D20FFF75A
:1023200073F8BDE808400D20FFF762B800100240C6
:1023300000B585B0142206496846FDF761FF00210B
:10234000684603F03CFD0349086005B000BD00008D
:1023500050A20008000000202DE9F04F584885B039
:10236000816941F040018161816901F0400104917E
:10237000816941F010018161816901F010010491CE
:10238000816941F080018161816901F080010491DE
:10239000816941F004018161816901F004010491C6
:1023A000816941F008018161816901F008010491AE
:1023B000816941F480718161816901F480710491C6
:1023C000816941F0200181618069DFF8F8B000F097
:1023D00020000490002207215846FEF78EFF4FF49C
:1023E0007067002239463848FEF787FF4FF440787F
:1023F000002241463548FEF780FF4FF480790022E5
:1024000049463348FEF779FF4FF4787A0022514667
:102410003048FEF772FF07200125CDE900050226AE
:10242000694603965846FEF76FFE0024C020CDE9AA
:102430000004694658460294FEF766FE4FF4604079
:10244000CDE90004694621480294FEF75DFE4EF294
:102450003F00CDE9000469461F480294FEF754FE90
:102460000320CDE9000469461C480294FEF74CFEA7
:10247000CDE90075694614480396FEF745FE4FF412
:1024800040508DE8310069460F48FEF73DFECDE92A
:10249000008569460D480396FEF736FECDE90095A6
:1024A00069460B480396FEF72FFECDE900A5694665
:1024B00008480396FEF728FE05B0BDE8F08F00003F
:1024C00000100240001801400014014000100140BB
:1024D00000080140000C0140001C014000200140A8
:1024E000124810B5104901604FF4827141604FF4F9
:1024F000004181600021C1604FF400720161C0E9B8
:1025000005121822C0E90721416281620A21C162D5
:10251000FFF7ABFA002805D0BDE81040522104A017
:1025200001F0AEB910BD00000030014014020020DF
:102530002E2E2F5372632F7370692E6300000000DC
:10254000114810B50F4901604FF4827141600021BC
:102550008160C1604FF400720161C0E90512202260
:10256000C0E90721416281620A21C162FFF77DFA59
:10257000002805D0BDE81040682104A001F080B912
:1025800010BD0000003800406C0200202E2E2F539A
:1025900072632F7370692E630000000010B51F482E
:1025A0008AB04FF0804101604FF434710024C0E9DB
:1025B00001144FF4FA61C0E903148461FFF748FD88
:1025C00018B14A2116A001F05BF9079407A9134836
:1025D0000894FFF78CFC18B1512111A001F050F9BB
:1025E0006020CDE900040294082269460B48049457
:1025F000FFF7C6FC18B15A2109A001F041F90C22DD
:1026000069460648FFF7BCFC18B15F2104A001F041
:1026100037F90248FFF794FC0AB010BD48030020C8
:102620002E2E2F5372632F74696D2E6300000000ED
:1026300010B52B4890B02949016048210024C0E919
:1026400001144FF47A71C0E9031444618461FFF707
:10265000FFFC18B1752123A001F012F90E940EA908
:102660001F480F94FFF743FC18B17C211DA001F017
:1026700007F9602000902820CDE901040394049418
:1026800005940022694616480694FFF779FC18B1B4
:10269000882114A001F0F4F8042269461048FFF7DD
:1026A0006FFC18B18D210FA001F0EAF8079408948F
:1026B00009944FF400500A94CDE90B4007A908484B
:1026C0000D94FFF7E7FB18B1992106A001F0D8F8A7
:1026D0000348FFF735FC10B010BD00000034014086
:1026E000880300202E2E2F5372632F74696D2E6382
:1026F000000000004FF47A71B1FBF0F20C4810B505
:102700000A490160482141600021C0E902120161CB
:1027100041618161FFF79CFC002806D0BDE81040B4
:102720004FF4F36103A001F0ABB810BD00340140D9
:10273000880300202E2E5C5372635C757365725F94
:102740007461736B735C757365725F7461736B73C3
:102750002E6300000D4810B50B4901604FF49641FF
:102760004160002181600C22C160C0E904128161D6
:10277000C161FFF7F1FC002805D0BDE810404C21F5
:1027800003A001F07DB810BD004800400803002000
:102790002E2E2F5372632F75736172742E63000097
:1027A000FEE770470907090E002806DA00F00F005F
:1027B00000F1E02080F8141D704700F1E02080F85F
:1027C0000014704738B5A64C80250021207845EAD2
:1027D0000010C0B200F0D4FCC0F381216160C0F3EE
:1027E0000121A160C0F3C011E160C0F3C301216108
:1027F000C0F380016161C0F3400100F00100C4E951
:102800000610FDF701FE0246D02396A1002000F03D
:1028100035FBFDF7F9FD024660680090D1239FA1CA
:10282000002000F02BFBFDF7EFFD0246A0680090B2
:10283000D223A7A1002000F021FBFDF7E5FD024611
:10284000E0680090D323AFA1002000F017FBFDF754
:10285000DBFD024620690090D423B7A1002000F0E0
:102860000DFBFDF7D1FD024660690090D523BFA1A5
:10287000002000F003FBFDF7C7FD0246A0690090B1
:10288000D623C7A1002000F0F9FAFDF7BDFD0246EE
:10289000E0690090D723CFA1002000F0EFFA2034A8
:1028A0000021207845EA0010C0B200F069FCC0F3B6
:1028B0000221C0B2C4E901100C340021207845EA9D
:1028C0000010C0B200F05CFCC0F30021C0B2C4E94B
:1028D00001100C340021207845EA0010C0B200F04D
:1028E0004FFCC0F30021C0B2C4E901100C34002138
:1028F000207845EA0010C0B200F042FCC0F302218B
:10290000C0B2C4E901100C340021207845EA00105F
:10291000C0B200F035FCC0F381216160C0F3012139
:10292000C0B2C4E9021010340021207845EA00103A
:10293000C0B200F025FCC0F381216160C0F3012129
:10294000A160C0F38111E160C0F301112161C0F306
:10295000810100F00300C4E905101C340021207837
:1029600045EA0010C0B200F00BFCC0F3C01161607A
:10297000C0F38011A160C0F34011E160C0F3001109
:102980002161C0F3C0016161C0F38001A161C0F3A6
:10299000400100F00100C4E90710FDF735FD0246D3
:1029A00040F2171398A1002000F068FAFDF72CFD03
:1029B0000246606800904FF48C73A2A1002000F0E2
:1029C0005DFAFDF721FD0246A068009040F2191360
:1029D000AAA1002000F052FAFDF716FD0246E068B9
:1029E00000904FF48D73B2A1002000F047FAFDF77C
:1029F0000BFD02462069009040F21B13B9A1002094
:102A000000F03CFAFDF700FD0246606900904FF4CB
:102A10008E73C1A1002000F031FAFDF7F5FC0246EB
:102A2000A069009040F21D13C8A1002000F026FA12
:102A3000FDF7EAFC0246E06900904FF48F73D0A1E5
:102A4000002000F01BFAFDF7DFFC0246206A009030
:102A500040F21F13D7A1002000F010FA38BD00008B
:102A6000280400201B5B313B33346D5B2538645DEB
:102A70005B647276383731315D5B44454255475D62
:102A80006C696E653A25640D0A436F6E74726F6CE3
:102A90002052656769737465720D0A001B5B313BD8
:102AA00033346D5B2538645D5B6472763837313161
:102AB0005D5B44454255475D6C696E653A25640D22
:102AC0000A4454494D45203D2025640D0A0000006C
:102AD0001B5B313B33346D5B2538645D5B64727620
:102AE000383731315D5B44454255475D6C696E65F1
:102AF0003A25640D0A49534741494E203D2025643B
:102B00000D0A00001B5B313B33346D5B2538645D7F
:102B10005B647276383731315D5B44454255475DC1
:102B20006C696E653A25640D0A45585354414C4C06
:102B3000203D2025640D0A001B5B313B33346D5B67
:102B40002538645D5B647276383731315D5B4445AE
:102B50004255475D6C696E653A25640D0A4D4F44D8
:102B600045203D2025640D0A000000001B5B313B21
:102B700033346D5B2538645D5B6472763837313190
:102B80005D5B44454255475D6C696E653A25640D51
:102B90000A5253544550203D2025640D0A00000080
:102BA0001B5B313B33346D5B2538645D5B6472764F
:102BB000383731315D5B44454255475D6C696E6520
:102BC0003A25640D0A52444952203D2025640D0ADD
:102BD000000000001B5B313B33346D5B2538645DC6
:102BE0005B647276383731315D5B44454255475DF1
:102BF0006C696E653A25640D0A454E424C203D20B5
:102C000025640D0A000000001B5B313B33356D5B12
:102C10002538645D5B647276383731315D5B5741CE
:102C2000524E494E475D6C696E653A25640D0A53F4
:102C300074617475732052656769737465720D0AE7
:102C4000000000001B5B313B33356D5B2538645D54
:102C50005B647276383731315D5B5741524E494E75
:102C6000475D6C696E653A25640D0A5354444C41C6
:102C700054203D2025640D0A000000001B5B313B01
:102C800033356D5B2538645D5B647276383731317E
:102C90005D5B5741524E494E475D6C696E653A2502
:102CA000640D0A535444203D2025640D0A000000A1
:102CB0001B5B313B33356D5B2538645D5B6472763D
:102CC000383731315D5B5741524E494E475D6C6933
:102CD0006E653A25640D0A55564C4F203D202564FB
:102CE0000D0A00001B5B313B33356D5B2538645D9D
:102CF0005B647276383731315D5B5741524E494ED5
:102D0000475D6C696E653A25640D0A425044462061
:102D10003D2025640D0A00001B5B313B33356D5BA4
:102D20002538645D5B647276383731315D5B5741BD
:102D3000524E494E475D6C696E653A25640D0A41F5
:102D4000504446203D2025640D0A00001B5B313BAA
:102D500033356D5B2538645D5B64727638373131AD
:102D60005D5B5741524E494E475D6C696E653A2531
:102D7000640D0A424F4350203D2025640D0A000097
:102D80001B5B313B33356D5B2538645D5B6472766C
:102D9000383731315D5B5741524E494E475D6C6962
:102DA0006E653A25640D0A414F4350203D2025644D
:102DB0000D0A00001B5B313B33356D5B2538645DCC
:102DC0005B647276383731315D5B5741524E494E04
:102DD000475D6C696E653A25640D0A4F5453203D7A
:102DE0002025640D0A0000002DE9F04107460B483C
:102DF00015460E46007808B900F00CFDEFF311847B
:102E0000202080F311882A463146384600F008F821
:102E1000E1B281F31188BDE8F0810000080D0020C7
:102E200070B50E46144900EB400001EBC005144696
:102E3000E86A183520B101280FD0022805D113E027
:102E4000284600F01EFDA04201D2002411E02246D7
:102E50003146284600F03AFE0BE0284600F011FD0E
:102E6000A042F4D20446F2E73146284600F001FEC3
:102E70000446204670BD0000080D00200FB408B5C0
:102E800004A900916A46039900F003F801B05DF8C7
:102E900014FB2DE9F041A8B0064607A80290802057
:102EA0000025CDE90305CDE9055690460C4614F8FA
:102EB000011B002973D0252908D002A800F0BAFD13
:102EC00005980028F3DA28B0BDE8F0810020012140
:102ED0002278232A1ED02B2A19D02D2A02D0302A5C
:102EE00008D102E040F0010001E040F00200641C63
:102EF0000029EDD100222178A1F130030A2B0CD258
:102F000002EB820201EB4202303A641CF3E740F02C
:102F10000400ECE740F00800E9E70023CFB22E2FD1
:102F20000BD114F8011FA1F130070A2F05D203EBD2
:102F3000830301EB4303303BF3E76C290DD0682991
:102F40000BD0702954D00BDC252916D0582931D04C
:102F500063290CD0642913D114E014F8011FECE7A5
:102F6000732934D075291BD0782909D122E0D8F8EB
:102F70000000011DC8F80010017802A800F05AFDF9
:102F8000641C9DE7D8F800100F1DC8F80070096890
:102F9000CDE900200A2202A800F07EFCF0E733E031
:102FA000D8F800100F1DC8F800700968CDE900209E
:102FB0000A2208E0D8F800100F1DC8F80070096850
:102FC000CDE90020102202A800F0CAFCD8E7D8F80A
:102FD0000000011DC8F80010076817F8011B002940
:102FE000CED002A800F026FD05980028F5DAC7E744
:102FF000D8F80000011DC8F8001001680820CDE9CC
:10300000000503461022DEE7059800287FF75BAF36
:10301000049820B1024607A93046FFF7E5FEDDE936
:103020000410084405904EE710B5FDF7EDF902468F
:103030004C2304A10020FFF721FF12480068BDE8DF
:10304000104000471B5B313B33346D5B2538645DBA
:103050005B706F727474696D65725D5B4445425557
:10306000475D6C696E653A25640D0A4D42207469AE
:103070006D657220E697B6E997B4E588B0E8BEBE04
:10308000210D0A006401002010B5104C2068016871
:103090000868C968C0F3401001F0200118B111B1EF
:1030A0000B4800688047206800680168C068C1F369
:1030B000C01100F08000002906D0002804D0054887
:1030C0000068BDE81040004710BD00009C010020D2
:1030D0005C0100206001002038B50B4600920446D8
:1030E0000022802100F072F8002804D0606D40F0CA
:1030F00020006065032038BD10B5406A01684A6849
:1031000022F003024A60416D41F010014165012146
:1031100080F85110FEF7A8FC10BD10B5406AFEF70C
:1031200098FE10BD38B50546446AFEF7EBF8024636
:103130002868006880061ED42068416821F00201DA
:10314000416064212046FFF7C7FF18B1606D40F071
:1031500020006065A068002118B92068C2688068F6
:103160000090E186012084F85100606D18B120467E
:10317000FEF77AFC38BD2046FEF76AFE38BD000037
:10318000FEB501228DF804000E4E8DF805101502D3
:1031900029463046FEF7B1F8012002F0B7FC4FF6A1
:1031A000FF700090022302AA01A90748FEF708FD5C
:1031B000BDF80800002244BA29463046FEF79DF8C3
:1031C0002046FEBD001401406C0200202DE9F041B4
:1031D0001D4617460E460446DDF8188035E0681C8B
:1031E00033D02DB1FEF78EF8A0EB0800A8422CD307
:1031F0002068416821F0E00141606068B0F5827F9D
:103200000BD1A068B0F5004F02D0B0F5806F04D1AB
:103210002068016821F040010160A06AB0F5005FFC
:103220000AD1206801684DF6FF72114001602068E4
:10323000016841F400510160012084F85100002030
:1032400084F850000320BDE8F0812068806836EAE9
:10325000000004D00020B842C1D10020F3E70120D3
:10326000F9E70000FDF7D0F802468A23074900205D
:10327000FFF704FE4FF4FA6002F048FC00F08AFD0C
:1032800040F6B834204602F041FCFBE78CA8000869
:1032900010B5FEF73DF8BDE8104002F086BD30B530
:1032A00095B001210804CDE9001000250295022403
:1032B0000491CDE907404FF4E01009906846FEF70D
:1032C00051FA00B1FEE70AA90F2081E831004FF45E
:1032D0008060CDE90D0502210AA8FEF73DF900B195
:1032E000FEE74FF4004011900F940FA8FEF7BEF8D0
:1032F00000B1FEE7FEF7DAF94FF47A71B0FBF1F0B6
:10330000FEF7B4FD0420FEF7A5FD00220F21501E9C
:10331000FEF77AF815B030BD0D48016841F00101A3
:10332000016041680B4A1140416001680A4A11403E
:103330000160016821F480210160416821F4FE01EF
:1033400041604FF41F0181600449C0030860704769
:10335000001002400000FFF8FFFFF6FE08ED00E05D
:10336000F0B502681C4B1D4D1D4E1E4F1E4C4FF0FC
:10337000804C984209D0A04207D0604505D0A842B1
:1033800003D0B04201D0B84204D122F0700E4A6896
:1033900042EA0E02984209D0A04207D0604505D00B
:1033A000A84203D0B04201D0B84203D122F4407504
:1033B000CA682A4322F080054A692A4302608A6863
:1033C000C2620A688262984201D0A04201D10969B2
:1033D000016301214161F0BD002C01400004004067
:1033E00000080040000C00400034014010B50123EB
:1033F000046A8B409C430462036A8A40134303625D
:1034000010BD0000F0B5026A22F001020262036AF8
:1034100042688469124E24F073050C682C4323F033
:1034200002058B682B430D4DA84201D0B04205D157
:1034300023F00807CB683B4323F00403A84201D0E4
:10344000B04205D14D6922F4407215438A692A437E
:1034500042608461496841630362F0BD002C014011
:1034600000340140F0B5026A22F010020262026AE2
:10347000436884690D6824F4E64444EA05248D68B1
:1034800022F0200242EA05120F4D104EA84201D050
:10349000B04206D1CF6822F0800242EA071222F041
:1034A0004002A84201D0B04207D14D6923F44063E5
:1034B00043EA85038D6943EA850343608461496873
:1034C00081630262F0BD0000002C01400034014025
:1034D000F0B5026A22F480720262026A4368C4692B
:1034E00022F4007224F073050C68124E2C438D6890
:1034F00042EA05220E4DA84201D0B04206D1CF6863
:1035000022F4006242EA072222F48062A84201D03B
:10351000B04207D14D6923F4405343EA05138D6946
:1035200043EA05134360C4614968C1630262F0BDA8
:10353000002C01400034014030B5026A22F4805270
:103540000262046A4268C3690D6823F4E64343EAF1
:1035500005238D6824F4005444EA0534084DA8423C
:1035600002D0084DA84204D14D6922F4804242EABB
:1035700085124260C36149680164046230BD000085
:10358000002C0140003401402DE9F0410446006860
:103590000169E26821F44051114301612169A06889
:1035A0000843616908432168CA6841F20C639A4381
:1035B0000243CA6020684169A26921F44071114345
:1035C00041614C4920686425322688423CD1FEF78F
:1035D00083F800EBC00101EB001061688900B0FBCB
:1035E000F1F7FEF779F800EBC00101EB001061681C
:1035F000B0468900B0FBF1F0B0FBF5F06FF01801B8
:10360000484307EB800106EB0110B0FBF5F000F03A
:10361000F006FEF761F800EBC00101EB00106168F5
:103620008900B0FBF1F0B0FBF5F006EB0016FEF7F9
:1036300053F800EBC00101EB001061688900B0FB9A
:10364000F1F7FEF749F83BE0FEF736F800EBC00172
:1036500001EB001061688900B0FBF1F7FEF72CF870
:1036600000EBC00101EB00106168B0468900B0FBBF
:10367000F1F0B0FBF5F06FF01801484307EB800163
:1036800006EB0110B0FBF5F000F0F006FEF714F8C1
:1036900000EBC00101EB001061688900B0FBF1F0A4
:1036A000B0FBF5F006EB0016FEF706F800EBC001E4
:1036B00001EB001061688900B0FBF1F7FDF7FCFF3A
:1036C00000EBC00101EB001061688900B0FBF1F074
:1036D000B0FBF5F06FF01801484307EB800108EBF1
:1036E0000110B0FBF5F0216800F00F003044886055
:1036F000BDE8F08100380140FFF7C6BCFEE70000DE
:10370000434910B508790A78097A40EA0210C0B234
:10371000FFF736FD3E490C3108790A78097A40EA0C
:103720000210C0B2FFF72CFD3949183108790A7828
:10373000097A40EA0210C0B2FFF722FD3449243171
:1037400008790A78097A40EA0210C0B2FFF718FD3A
:103750002F49303108780A79000140EA82000A7A5C
:10376000097B1043C0B2FFF70BFD294940310878AF
:103770000A79000140EA82000A7A0B7B10430A7E34
:10378000C0B242EA83120B7C097D1B0143EA81012E
:103790000A43D1B2FFF7F4FC1D495C310A790B7A78
:1037A000D20142EA83120B7B087842EA43120B7C77
:1037B000000742EA03120B7D000E42EAC3020B7EB1
:1037C00042EA83020B7F91F8201042EA43020A4347
:1037D000D1B2FFF7D5FC0E49203908780A790001EB
:1037E00040EA82000A7A0B7C10430A7BC0B2D20105
:1037F00042EAC3020B7D42EA83020B7E097F42EA62
:1038000043020A43BDE81040D1B2FFF7B9BC000043
:103810004804002010B5124C03202061606111A003
:10382000A06104F1A800E0614FF480502062002004
:10383000A06260620BA12166E0620D496166102101
:103840002067C4E91A1060670AA1E01DFCF7FCFCC0
:1038500009A12046FCF7F8FC2020A07110BD000053
:10386000080D00205465726D696E616C00000000E7
:10387000B01D0020525454005345474745520000A4
:10388000FEE70269C1688A4203D88068401A104482
:1038900000E0501A401E70472DE9FC5F0E00814683
:1038A000DDE90C47C6F1000098469346824600D4F5
:1038B0000846012503E000BF90FBFBF06D1C584556
:1038C000FADAA84500D9454624B1002E01DB780775
:1038D00000D5641EB80702D5B8F1000F0FD0F80765
:1038E0000DD164B1A5420AD220214846641E00F0E1
:1038F000A1F8D9F80C000028F3DABDE8FC9FD9F84C
:103900000C000028F9DB002E02DA56462D2102E0D9
:10391000780707D52B21484600F08CF8D9F80C0021
:103920000028EADB07F0030002280FD1B8F1000FEE
:103930000CD15CB1A54209D230214846641E00F08A
:1039400079F8D9F80C000028F3DAD6E7CDE900477A
:1039500043465A463146484600F002F8CDE700009B
:103960002DE9F84F8246DDE90A4B0126984691463B
:103970000D460846374602E0B0FBF9F07F1C48458B
:10398000FAD2B84500D947465FEACB7017D1B4B137
:103990005FEA8B7002D5B8F1000F02D020200090B2
:1039A0000BE03020FBE75046641E009900F042F81F
:1039B000DAF80C00002838DB0CB1A742F3D3DAF8B0
:1039C0000C00002831DB00BFB8F1010F02D9A8F1CB
:1039D000010803E0B5FBF6F0484502D306FB09F603
:1039E000F2E7DFF84C8000BFB5FBF6F000FB1655A0
:1039F00018F80010504600F01DF8DAF80C00002806
:103A000003DBB6FBF9F6002EEED15FEACB700CD0EB
:103A1000002C0AD0A74208D220215046641E00F094
:103A200009F8DAF80C000028F2DABDE8F88F000097
:103A30007CA6000810B50446D4E90130421C93422C
:103A400005D323681954A260E068401CE060D4E903
:103A50000102824209D121682069FFF7C5F9A168F6
:103A6000884203D04FF0FF30E06010BD0020A0601E
:103A700010BD2DE9F047C4681746894606464FF049
:103A800000083069A04201D9051B02E0B168201A84
:103A90000D1AB0686D1E001BA84200D80546BD4235
:103AA00000D33D4670682A4620444946FCF7A8FBEF
:103AB000B0687F1B2C44A844A944A04200D1002434
:103AC000F460002FDDD14046BDE8F0872DE9F041DC
:103AD00004468846D4E90207C51BE16860681646BB
:103AE0000844B54206D94146FCF78AFBB819E060A4
:103AF000BDE8F0812A464146FCF782FB761B08EBC5
:103B0000050132466068FCF77BFBE660F0E702E007
:103B100008C8121F08C1002AFAD170477047002058
:103B200001E001C1121F002AFBD1704738B52C4DAE
:103B30002C4805F10A0429882A4A41434FF44830A9
:103B400091FBF0F121806988514391FBF0F1618094
:103B5000A988514391FBF0F0A080E888FCF7F4FCC1
:103B6000E080288920494843000C2081FCF74CFC68
:103B70000246208800904FF490631CA10020FFF7BC
:103B80007DF9FCF741FC02466088009040F28143D9
:103B900026490020FFF772F9FCF736FC0246A088A0
:103BA000009040F2824322A10020FFF767F9FCF762
:103BB0002BFC0246B4F90600009040F283432BA18F
:103BC0000020FFF75BF9FCF71FFC024620890090FC
:103BD00040F2844334A10020FFF750F938BD0000C3
:103BE0001204002010090500007206001B5B313B27
:103BF00033326D5B2538645D5B6D61696E5F746146
:103C0000736B5D5B494E464F5D6C696E653A25642A
:103C10000D0AE58E8BE69DAFE794B5E6B581EFBC66
:103C20009A2564206D412E0D0A000000F8C6000898
:103C30001B5B313B33326D5B2538645D5B6D6169C5
:103C40006E5F7461736B5D5B494E464F5D6C696E70
:103C5000653A25640D0A323456E794B5E6B581EF2E
:103C6000BC9A2564206D412E0D0A00001B5B313B80
:103C700033326D5B2538645D5B6D61696E5F7461C5
:103C8000736B5D5B494E464F5D6C696E653A2564AA
:103C90000D0AE6B8A9E5BAA6E580BCEFBC9A256492
:103CA00020E284832E0D0A001B5B313B33326D5BB7
:103CB0002538645D5B6D61696E5F7461736B5D5B1C
:103CC000494E464F5D6C696E653A25640D0A424562
:103CD0004D46EFBC9A2564206D562E0D0A0000005B
:103CE00088B0142102A8FCF7A4FA00263546FCF798
:103CF0008BFB024640F2B64322490020FFF7BEF894
:103D0000214F02AC052220492048FCF7D9FF192099
:103D100001F0FCFE5FF0000054F8201037F810208E
:103D2000114444F82010401CC0B20528F4D36D1C87
:103D30001936ADB2FA2EE5D3FCF766FBCDE9006586
:103D4000024640F2C64312490020FFF797F80E4999
:103D500000200A3154F82020B2FBF5F221F810209F
:103D6000401CC0B20528F5D3FFF7E0FE002635461B
:103D70003046314644F82010401CC0B20528F9D323
:103D8000C0E70000FCCF000808040020A0010020CC
:103D900008C8000810B5C2B0FCF736FB0246722313
:103DA0004F490020FFF76AF804F008F8FCF72CFBF5
:103DB000024674234BA10020FFF760F814225849F3
:103DC0006846FCF71DFA0021684601F0F8FF554CE3
:103DD000534914226061143105A8FCF711FA00213F
:103DE00005A801F0ECFF4E49A061142228310AA871
:103DF000FCF706FA00210AA801F0E1FF4849E0615A
:103E000014223C310FA8FCF7FBF900210FA801F0A8
:103E1000D6FF434920621422503114A8FCF7F0F970
:103E2000002114A801F0CBFF3D49606214226431E7
:103E300019A8FCF7E5F9002119A801F0C0FF3849DD
:103E4000A062142278311EA8FCF7DAF900211EA81E
:103E500001F0B5FF3249E06214228C3123A8FCF74F
:103E6000CFF9002123A801F0AAFF2D4920631422D5
:103E7000A03128A8FCF7C4F9002128A801F09FFF71
:103E8000274960631422B4312DA8FCF7B9F9002149
:103E90002DA801F094FF2249A0631422C83132A852
:103EA000FCF7AEF9002132A801F089FF1C49E0635C
:103EB0001422DC3137A8FCF7A3F9002137A801F060
:103EC0007EFF174920641422F0313CA8FCF798F9D2
:103ED00000213CA801F073FF606442B010BD0000F7
:103EE000A8C600081B5B313B33346D5B2538645D2D
:103EF0005B6D61696E5F7461736B5D5B44454255D8
:103F0000475D6C696E653A25640D0AE5889BE5BBE3
:103F1000BAE4BBBBE58AA12E2E2E0D0A00000000DC
:103F2000C0A200084000002070B514460D460646A9
:103F3000FCF76AFA02464B2305A10020FEF79EFF1C
:103F4000224629463046BDE8704000F025B8000002
:103F50001B5B313B33316D5B2538645D5B61707099
:103F60005F6572726F725D5B4552524F525D6C6954
:103F70006E653A25640D0A466174616C210D0A0074
:103F80000EB5ADF80010CDE901206A46002144F2DB
:103F90000100FFF7C9FF0EBD38B56FF4804114462C
:103FA00040182BD0012852D1FCF72EFA02462323C9
:103FB00027490020FEF762FF6068002813D0FCF755
:103FC00023FA024620880090262322A10020FEF733
:103FD00055FFFCF719FA02466068009027232CA1D0
:103FE0000020FEF74BFFFCF70FFA01B00246BDE8D8
:103FF0003040292335A10020FEF740BFFCF704FA2A
:1040000002462D233C490020FEF738FF6068002857
:1040100013D0FCF7F9F902462088009030230DA157
:104020000020FEF72BFFFCF7EFF9024660680090D6
:10403000312317A10020FEF721FFFCF7E5F9024626
:10404000A068009033232DA10020FEF717FF38BD94
:10405000CC0101081B5B313B33316D5B2538645D5E
:104060005B6170705F6572726F725D5B4552524F3B
:10407000525D6C696E653A25640D0A4C696E652067
:104080004E756D6265723A2025750D0A00000000BC
:104090001B5B313B33316D5B2538645D5B61707058
:1040A0005F6572726F725D5B4552524F525D6C6913
:1040B0006E653A25640D0A46696C65204E616D6532
:1040C0003A20202025730D0A000000001B5B313BC5
:1040D00033316D5B2538645D5B6170705F65727252
:1040E0006F725D5B4552524F525D6C696E653A2549
:1040F000640D0A0D0A000000100201081B5B313B31
:1041000033316D5B2538645D5B6170705F65727221
:104110006F725D5B4552524F525D6C696E653A2518
:10412000640D0A4572726F7220436F64653A2020F5
:10413000307825580D0A0000EFF30580002800D0E4
:10414000012070472DE9F84F444B00240326C3E9B2
:10415000004601250227052906D00A2906D0142980
:1041600006D0282907D105E09C6004E09D6002E0AC
:104170009F6000E09E604FF004094FF0050A4FF089
:10418000060BDD60102A1BD008DC012A10D0022AA1
:1041900010D0042A10D0082A1FD10FE0202A12D0F4
:1041A000402A13D0802A14D0B2F5807F15D112E0B6
:1041B0001C6112E01D6110E01F610EE01E610CE049
:1041C000C3F8109009E0C3F810A006E0C3F810B0DF
:1041D00003E0072100E0082119615C61DFF87C80C1
:1041E0009C6108F12008DC61C8F80050FF21C8F884
:1041F0000450002300916422194601F0E9F9C8F83F
:10420000080008F10C0030210760C0E901410C30C2
:1042100010210660C0E901510C30C0F80090C0E9DF
:1042200001510C304021C0E90261C0E900A7103003
:104230000721C0E900B4C0E90245C0E90456856120
:104240001C30C0E900148460C4600461446184616E
:10425000C4610462BDE8F84FFFF752BA2804002099
:104260000EB5FCF7D1F8024640F205434D49002057
:10427000FEF704FE4C4D00274C4C41F2051841F26C
:10428000040941F2050A41F2060B01261422684690
:10429000E16E01F057FCDDE90010029AAA60C5E961
:1042A0000010102920D1012801D002281CD1FCF7D0
:1042B000ABF8024640F20B433D490020FEF7DEFD1D
:1042C0006868012850D0FCF79FF8024640F214437A
:1042D00038A10020FEF7D2FDFCF71AF984F800603F
:1042E00041F2883001F012FC304A0023921C012177
:1042F000404600F011FB2D4A0123121D1946484685
:1043000000F00AFB294A0123921D1946504600F08D
:1043100003FB264A012308321946584600F0FCFAEE
:10432000B4F90400B4F906104218B4F902108A4234
:1043300002DA2278012A24D0B4F90820801A8842AF
:10434000A4DD20780028A1D1FCF75EF80246B4F97C
:10435000020000904FF4856325490020FEF78EFD92
:10436000FCF7D6F8267091E7FCF74EF8024640F2CB
:104370000E4320A10020FEF781FDFCF7D1F8277045
:10438000AEE7FCF741F80246B4F90200009040F2B3
:10439000224327490020FEF771FDFCF7C1F8277082
:1043A00074E700008CD20008F003002040000020D9
:1043B0005CEC00081B5B313B33326D5B2538645D80
:1043C0005B6D61696E5F7461736B5D5B494E464FF7
:1043D0005D6C696E653A25640D0AE585B3E997ADB4
:1043E000E58E8BE7BCA9E69CBAEFBC810D0A000004
:1043F000ECFF00081B5B313B33326D5B2538645D9D
:104400005B6D61696E5F7461736B5D5B494E464FB6
:104410005D6C696E653A25640D0AE68993E5BC809A
:10442000E58E8BE7BCA9E69CBAEFBC810D0A0000C3
:104430009CFF000870B5064D00242878012802D0A2
:104440000624204670BD2869804700202870F8E7C0
:104450003C01002070B50C4609880026052925D1AD
:10446000417805790A0281781143491C6A1E89B294
:104470007C2A1BD800222280032200F8012B2288EC
:104480000023521C22806A0000F8012B2288521C53
:1044900022802A4600F0C2F918B102F0F2F906466D
:1044A00005E0208800EB4500208000E00326304630
:1044B00070BD70B50C4609880026052927D14178C2
:1044C00005790A0281781143C278491C45EA022520
:1044D0006A1E89B27C2A1AD200222280042200F8A5
:1044E000012B2288521C22806A0000F8012B2288AE
:1044F000521C22802A4600F0DDF918B102F0C1F901
:10450000064605E0208800EB4500208000E00326F9
:10451000304670BD10B509880024052902D0032457
:10452000204610BD417801230A028178C01C114346
:10453000491C89B21A4600F071F90028F0D002F047
:10454000A0F90446ECE770B50D4609880024062959
:104550001DD341780A0281781143C278491C1302A5
:10456000027989B21A434379561E772E0FD8560620
:10457000360E9E420BD10123801D00F04FF918B179
:1045800002F07FF9044603E00520288000E00324C0
:10459000204670BD2DE9F0411D46069B1746064694
:1045A00029B1F72903D8134C084621710EB1022511
:1045B0001BE011492161114961611149E160114913
:1045C000A1611149E16111492162114961621149F9
:1045D000A1622A46394600F079F8050005D104F0B9
:1045E00043FE28B16671012020702846BDE8F081A5
:1045F0000325FAE73C010020DD47000801480008D8
:104600007147000819470008918000081D940008B0
:10461000C59400088594000838B52B4C207808B163
:10462000062038BD684604F0E1FD01284AD19DF816
:104630000000E8B3012802D0022843D10FE0224A4B
:10464000A369921D911CC81F984788BB6078217987
:10465000884200D060BB022004F042FE32E0A06835
:104660000121194B0278A270E170002113F12C0393
:1046700013F8315065B1954207D103EBC1014A6887
:104680001149891D9047E07002E0491C0429EFDBC5
:10469000607868B1E07880B10021E180A17841F0D4
:1046A0008002A1680A70E288521C92B2E28000E0A7
:1046B00008E08854E088401CE080D4E90213E288D6
:1046C00020799847002038BD3C0100202DE9F041B9
:1046D0001F4615460E46002403F0C6FC3B46082242
:1046E0002946304604F076FE01280DD1B5F5964FE7
:1046F00001D9232003E007496800B1FBF0F080B244
:1047000004F07EFE012800D0032403F0B7FC20460D
:10471000BDE8F081A07F17002DE9F04116468846DC
:104720000746002503F0A0FC0F4CA088FF2801D904
:10473000AFF30080A088042804D3A1880B4803F0BD
:1047400023FC30B15FF0050503F098FC2846BDE876
:10475000F081064800783870A088C01E3080034879
:10476000401CC8F80000EFE78801002018970020DF
:104770002DE9F04190460E460746002503F074FCF3
:10478000144C6078012806D05FF0050503F076FC34
:104790002846BDE8F081701E0126A0606680077083
:1047A000628802EB08016180618803F0EDFB61889B
:1047B000094A5318491C61801870010A6088024434
:1047C000401C6080117026700121002003F0B2FCB3
:1047D000DCE70000880100201897002010B503F0E6
:1047E00043FC0649002048700146012003F0A2FC6A
:1047F00003F03AFDBDE8104003F040BC8801002002
:1048000010B503F031FC0021084603F093FC03F0DF
:10481000FBFCBDE8104003F031BC00002DE9F04185
:1048200000240646B1F5805F3ED9881841F20F0595
:10483000A84239D81E4D13B1012B36D11AE0002001
:1048400000EB400305EB83031F898F420DD15B8989
:1048500093420AD100EB400005EB8000416819E06B
:104860003046884708B302241FE0401CC0B2042829
:10487000E6D3F8E75FF0000000EB400305EB8303AD
:104880001F898F420BD15B89934208D100EB400016
:1048900055F820100029E3D10620BDE8F081401C26
:1048A000C0B20428E8D3DEE701242046F5E7000083
:1048B000040000202DE9F04100250646B1F5885F8F
:1048C00025D9881841F20613984220D8114C0023AC
:1048D00003EB430004EB800007898F4211D140892C
:1048E00090420ED103EB430004EB8000416831B1EC
:1048F0003046884700B102252846BDE8F0810620F1
:10490000FBE75B1C13F0FF03E2D00220F5E7012078
:10491000F3E700003400002030B5B2B34418012B97
:1049200001D0C3B132E0B0F5805F2FD941F20F035F
:104930009C422BD80023164C0AE0C51804EB450511
:10494000A5F54055B5F8FE5F22F813505B1CDBB2AD
:104950008B42F2D317E0B0F5885F17D941F2061306
:104960009C4213D80A4C00231C340AE0C51804EBFF
:104970004505A5F54055B5F8FE5D22F813505B1CC2
:10498000DBB28B42F2D3002030BDFFE70120FBE712
:10499000C8030020FDF716BFEFF30580002800D004
:1049A0000120704710B5FBF72FFD024640F234534B
:1049B00004490020FEF762FABDE81040002000F034
:1049C00095B8000018E3000808B501236A461946A7
:1049D00041F20300FFF7A0FFBDF80000C0B208BD20
:1049E0002DE9FF4190460E46070038D0B6B3B8F126
:1049F000000F34D0012303AA194641F20200FFF749
:104A00008BFF012827D0012302AA194641F2010099
:104A1000FFF782FF01281ED0BDF80C00050AC4B2C2
:104A2000BDF80800E8B1FBF7EFFC1149024640F27F
:104A30006353CDE900540020FEF720FA284600F029
:104A400071F93870204600F068F93070BDF8081030
:104A5000A8F80010002004B0BDE8F081FFE70120B5
:104A6000F9E7FBF7D1FC024640F25F530149E0E76A
:104A70003CC70008A4C70008F8B5194D0646002435
:104A80000A21A86F01F004F958B10124FBF7BCFC1E
:104A90001449024640F203530020FEF7EFF9204686
:104AA000F8BD012341F203076A4619463846FFF76D
:104AB00033FFBDF80000012300F47F403043ADF820
:104AC00000006A461946384602F04EFBA86F01F016
:104AD000B7F8FBF799FC024640F2FE430249DBE7D8
:104AE0004000002068D600083CCE0008F8B5194DFB
:104AF000064600240A21A86F01F0CAF858B1012423
:104B0000FBF782FC1449024640F22C530020FEF7CA
:104B1000B5F92046F8BD012341F203076A4619465C
:104B20003846FFF7F9FEBDF800000123C0B240EAA5
:104B30000620ADF800006A461946384602F014FB1C
:104B4000A86F01F07DF8FBF75FFC024640F22753A7
:104B50000249DBE74000002050DA000834FF00087B
:104B60000EB5FBF751FC024640F2344339490020B0
:104B7000FEF784F9384D394C4FF0FF3805F10C063B
:104B800042466846216F00F0DDFF9DE8070005F111
:104B90000C0383E8070030681028F1D1FBF734FCE0
:104BA000024640F23C432E490020FEF767F9706848
:104BB0000128E5D1FBF728FC024640F23F43294992
:104BC0000020FEF75BF9FBF78DFD052000F09EFF4E
:104BD000FBF780FD4FF4FA77384600F097FFFBF7BC
:104BE00081FD052000F092FFFBF774FD384600F0D0
:104BF0008DFFFBF777FD43F24267206914E0002246
:104C00006846216F00F09EFF9DE8070005F10C0348
:104C1000102883E8070001D1022907D0142000F0F2
:104C200075FF206914302061B842E8D3002020616C
:104C3000FBF750FD4FF48051606901F05DF8FBF720
:104C4000E3FB024640F2544307490020FEF716F901
:104C500096E7000088D00008F00300204000002004
:104C600084EB000894FE0008E4FE000810B5FBF792
:104C7000CBFB024640F23E5304490020FEF7FEF80B
:104C8000BDE810400220FFF731BF00001CD700082C
:104C90002DE9FE4F17468A46804600F043FF044642
:104CA0004FF6FF7915E03A1A4946684601F052F886
:104CB0009DE86100402804D0082808D115EA0A0FB1
:104CC00005D0C8E90005C8F80860BDE8FE8F00F00F
:104CD00029FF001BB842E6D34020F2E7FCF720FB97
:104CE000FEF7DDFAFDF738FBFDF704FBFDF7A0FC4E
:104CF000FDF726FCFDF752FCFDF7F2FBFDF794FAF9
:104D0000FDF728FDFDF714FB00F007FFFEE7014665
:104D10000020842900D0C81C7047022101EB40000C
:104D2000C0B27047022101EB8000C0B270470000A2
:104D300038B51F4C0023A289B0B1142A26D060894F
:104D4000084480B260810A2820D3121D6381142A8E
:104D50001DD31420A081FBF757FB0246A08940F227
:104D60007D73144900901BE0012A0FD00120A0811F
:104D70006381FDF7BFFCFBF747FB0246A08900906B
:104D800040F26F730C490020FEF778F838BDA2811D
:104D9000FBF73AFB0246A089084940F28273009073
:104DA0000020FEF76BF8A089BDE83840FDF7A2BCF3
:104DB0004000002034CD0008D8CC000894CD000875
:104DC0004FF0000B584660F31F64FF2565F30F2476
:104DD000D94665F3174469F3070188B065F3070402
:104DE00060F31F466BF31F478846FBF70DFB024637
:104DF00040F25923F7490020FEF740F8FBF79EFBED
:104E000060F30706FBF794FB60F30707F248002204
:104E1000C16D04A800F096FEDDE904018A46102861
:104E200071D1FBF7F1FA024640F26123EB49002011
:104E3000FEF724F8BAF1070F76D8FBF7E5FA024639
:104E40004FF41973E6490020FEF718F8BAF1010F84
:104E500019D0BAF1070F26D0C4F30721FF292FD0AC
:104E6000C5F3072060B3BAF1020F33D0BAF1030FD4
:104E70003BD0BAF1040F49D0BAF1050F57D0BAF1BF
:104E8000060F64D085E0032003900C200290FF20E1
:104E900060F30F246BF30F25FBF7B6FA024640F2DE
:104EA0006B23D04960E0C4F307200390C5F30720CB
:104EB0000290FBF7A9FA024640F27123CA4953E077
:104EC000FBF7A2FA024640F27523C8490020FDF71D
:104ED000D5FF9BE7122003900C200290FBF794FA79
:104EE00002464FF41F73C2493EE012298ED2C80712
:104EF0000AD0491CC8B20390FBF786FA024640F27A
:104F00008323BC4930E066E0891CF3E70429E0D93B
:104F1000C8070AD0491EC8B20390FBF775FA0246CB
:104F200040F28A23B4491FE024E0891EF3E70428F5
:104F3000CFD9C10709D0401EC0B20290FBF764FA76
:104F4000024640F29123AD490EE0801EF4E70C28A2
:104F5000BFD2C1070CD0401CC0B20290FBF754FA7C
:104F6000A74902464FF426730020FDF787FF10E0A3
:104F7000801CF1E7FBF748FA024640F29E23A14964
:104F80000020FDF77BFFCAF3072003900AF0FF0023
:104F900002900398012260F317440298414660F39F
:104FA0001745584662F30701D94660F31F6460F362
:104FB0001F6588466BF31F4669F31F47FBF724FA0A
:104FC0000246DDE90210CDE9000140F2AD238E4931
:104FD0000020FDF753FFFBF7B1FA8246FBF76EFBAB
:104FE000B0B9C4F30720032812D0032060F30F24C4
:104FF000E1B26AF30706FF2901D160F31744FBF71A
:1050000003FA024640F2BA2380490020FDF736FF3A
:10501000F1B2514551D0300A401DC0B260F30F26A5
:105020003C2858D36BF30F26C4F307216AF3070615
:10503000FF2939D0E2B2012A13D0022A21D04FF041
:10504000FF0A6AF30F246AF31744FBF7DDF90246FF
:1050500040F2D7236E490020CDF800A0FDF70EFFE7
:1050600061E0491CC9B261F30F248A466BF31F4605
:10507000FBF7CAF940F2CB2302466649CDF800A0FF
:105080000EE0491EC9B261F30F248A466BF31F4636
:10509000FBF7BAF96049024640F2D123CDF800A0EF
:1050A0000020FDF7EBFE16E06BF31F46FBF7ACF9B3
:1050B000024640F2DD2359490AE0C6F3072050B109
:1050C0006BF30F26FBF7A0F9554902464FF43973ED
:1050D0000020FDF7D3FEC4F30741C4F3072081424B
:1050E0000ED2E2B2022A0BD0022060F30704FBF7D3
:1050F0000FFCFBF789F902464FF43B73494920E066
:1051000081420ED9E2B2012A0BD0012060F30704DC
:10511000FBF71CFCFBF778F940F2F2230246424908
:105120000FE0814210D1E0B2FF280DD0FF2060F3E4
:105130000704FBF7DBFBFBF767F93C4902464FF43A
:105140003E730020FDF79AFEFBF7F2F98246FBF76B
:1051500061FAB0B9C5F307200C2812D00C2060F317
:105160000F25E9B26AF30707FF2901D160F317455C
:10517000FBF74AF9024640F205332D490020FDF7BE
:105180007DFEF9B251457AD0380A401DC0B260F3B5
:105190000F273C2872D36BF30F276AF30707C5F379
:1051A0000721A9B1EAB2012A46D0022A54D0DA4630
:1051B0006AF30F256AF31745FBF726F9024640F21A
:1051C00021331C490020CDF800A0FDF757FE98E0E0
:1051D00056E000003CD20008400000200CEC000823
:1051E000E0E7000828E80008F0E5000808D6000815
:1051F00040E6000890E60008E4E6000838E700080A
:105200008CE7000898EA000884C90008A8FC000898
:1052100048CB0008D8C9000890CA00084CDE000836
:1052200084DD000868E00008C4E1000840FD0008D3
:10523000F4FC0008C4CB0008491CC9B261F30F2577
:105240008A466BF31F47FBF7DFF840F2153302463F
:10525000B049CDF800A00EE0491EC9B261F30F2598
:105260008A466BF31F47FBF7CFF8AB49024640F283
:105270001B33CDF800A00020FDF700FE17E008E08A
:105280006BF31F47FBF7C0F8024640F22733A349F0
:105290000AE0C7F3072050B16BF30F27FBF7B4F810
:1052A0009F49024640F22E330020FDF7E7FDC5F38B
:1052B0000741C5F3072081420FD2EAB2022A0CD07F
:1052C000022060F30705D946FBF7EEF8FBF79CF8E0
:1052D00040F236330246934922E081420FD9EAB2C6
:1052E000012A0CD0012060F30705D946FBF7F6F838
:1052F000FBF78AF840F23D3302468B4910E08142C9
:1053000011D1E8B2FF280ED0FF2060F30705D9467F
:10531000FBF7B8F8FBF778F884494FF4517302466D
:105320000020FDF7ABFDE0B2FF2803D0300C401D9C
:1053300060F31F46E8B2FF2805D0380C401D09F184
:10534000050960F31F4708F0FF0001281DD1C4F3D1
:105350000740C4F30721884217D1C5F30740C5F3BE
:105360000721884211D172484021406900F0C4FCF5
:1053700040466BF307008046FBF746F802464FF4C1
:1053800056736C490020FDF779FDB9F57A7F25D376
:10539000DFF8A4A1BAF80800B0F5487F0CD2FBF7FB
:1053A00033F80246BAF80800009040F2AB43634974
:1053B0000020FDF763FD02E0FBF7C8F870B901209B
:1053C00060F31F65BA20FFF757FBFBF71DF8024695
:1053D00040F261335A490020FDF750FD310C41F293
:1053E000883A514502D2390C514523D3012060F34C
:1053F0001F6460F31F65BB20FFF73EFBFBF704F85B
:10540000024640F269334F490020FDF737FD310C69
:10541000514506D3FAF7F8FF4FF45B7302464A4949
:1054200005E0FAF7F1FF494902464FF45C730020AA
:10543000FDF724FDDFF800A141F27071BAF8040015
:10544000884220D9FAF7E0FF0246BAF8040000903B
:105450004FF494633EA10020FDF710FD280E01D00B
:10546000200E10D1012060F31F6560F31F64B0208F
:10547000FFF702FBFAF7C8FF024640F2793343A177
:105480000020FDF7FBFC08F0FF00012838D1200EBA
:1054900002D1280E012833D1FAF7B6FF024640F2B6
:1054A0007E3349490020FDF7E9FCFAF7ADFF0246DB
:1054B00040F27F3345490020FDF7E0FCFF2060F318
:1054C000070460F30705012060F31F6460F31F65A4
:1054D000200A60F31744D946280A69F31F466BF384
:1054E0001F4760F31745FBF701FAFAF7CBFF1048A7
:1054F0008021406900F000FC41466BF307018846BB
:1055000008F0FF000521FFF713FC052000F0FEFA6C
:105510007CE4000034CA0008ECCA0008ACDE0008D5
:10552000E8DD0008ECE0000848E20008C0FD0008E3
:1055300040000020D4F400081C040020ECC800083F
:1055400028D5000828D4000870D40008CCD400085E
:105550001B5B313B33316D5B2538645D5B6D61698D
:105560006E5F7461736B5D5B4552524F525D6C6947
:105570006E653A25640D0A323456E8BF87E8BDBD32
:105580003A2564206D41EFBC810D0A001B5B313B65
:1055900033316D5B2538645D5B6D61696E5F74618D
:1055A000736B5D5B4552524F525D6C696E653A2577
:1055B000640D0A323456E794B5E6B581E8BF87E852
:1055C000BDBDEFBC810D0A0040FE000814F40008C8
:1055D00010B5401A029CE41A6043511A90FBF1F096
:1055E000184410BD7FB524480621234CC1800421F6
:1055F0000181012141811C3408022080302060801B
:1056000045F65800A080E080FAF7FEFE02464023EF
:105610001A490020FDF732FCFAF7F6FE02466088D0
:10562000C1B2030A2088CDE90231C5B2000ACDE932
:105630000005412312490020FDF720FCFAF7E4FEA3
:105640000246E088C1B2030AA088CDE90231C4B2A3
:10565000000ACDE9000442230A490020FDF70EFCB0
:10566000FAF7D2FE04B00246BDE870404323034976
:105670000020FDF703BC0000C8030020DCA80008E0
:10568000A4AE000814AF000808B5FAF7BDFE024644
:10569000D92309490020FDF7F1FB00204FF41653F0
:1056A00002460B210090FEF775FFFEF7C3FE00BF18
:1056B000FEF7B2FFFCE7000064C6000810B540F634
:1056C000FF71884200D3084642F210714143C0F591
:1056D000805091FBF0F000F00DF8FF2805D0044950
:1056E00001EBC000007940B210BD7F2010BD00006A
:1056F000F4A3000838B504460022502140F60460A7
:10570000844202D91648844228D3FAF77DFE024625
:105710001C23144900200094FDF7B0FB1CE0501836
:1057200000EBD070C0F3470053F83050A5420BD2C5
:1057300003EBC001A0F1010051F8081CA14201D304
:10574000C0B238BD014605E003EBC0029268A24238
:10575000F7D302468A42E2DDFF2038BD024BDEE786
:105760000A58020088010108F4A300084FF0010A5A
:105770004FF000094E460EB56AF31F6466F30F241E
:1057800066F317446AF307054FF0FF0B6BF307044A
:1057900066F31F45FAF738FE024640F28313AE491E
:1057A0000020FDF76BFBDFF8B48214226846D8F8BE
:1057B000581000F0C7F9DDE90007102803D1012FC8
:1057C00009D0022F07D0200EEFD100BFFAF75EFFFD
:1057D00001282CD03FE0FAF717FE024640F2891369
:1057E0009F4900200097FDF749FB6AF3070569F31D
:1057F0001F4569F31F64012F0BD06AF31744FAF7B2
:1058000003FE02464FF4CB7396A10020FDF736FB52
:10581000DCE7032060F3174441F2893060F31F4551
:10582000FAF7F2FD024640F291139CA1EDE7FAF778
:1058300039FF01280FD1C4F3072002280BD0022022
:1058400060F30F24FAF7E0FD024640F29F13A149EE
:105850000020FDF713FBFAF719FF88B9C4F30720FE
:1058600003280DD0032060F30F246AF30705FAF72D
:10587000CBFD024640F2A51397490020FDF7FEFA42
:10588000FAF710FFA8B9C4F3072001280AD06AF379
:105890000F24FAF7B9FD02464FF4D6738F49002062
:1058A000FDF7ECFA15F0FF0F03D1280C143060F36C
:1058B0001F45FAF7DFFE10B1FAF7D0FEA0B9E0B24B
:1058C000022804D0290C41F2883081420CD9FAF721
:1058D0009BFD02464FF4DB7381490020FDF7CEFAB1
:1058E00069F3070569F31F45E0B2FF2800D01436BD
:1058F000C82E26D97B4F7988B1F57A6F21D9FAF76E
:1059000083FD02467888009040F296437649002055
:10591000FDF7B4FA4E46FAF777FD02464FF4E0730E
:1059200072490020FDF7AAFA6BF307046AF31F64BB
:10593000FAF7E0FEC4F3074001287FF436AF0421F4
:1059400083E015F0FF0F1BD0C4F30722C4F3074117
:105950008A425CD0032948D00129EED101283FF4C6
:1059600024AFFAF751FD6249024640F2FD130020D0
:10597000FDF784FA6AF307044E46FAF729FF14E7A5
:10598000C4F30721012908D00128F8D0FAF73CFD1B
:105990004FF4EC7302465749E9E7FF280ED0FAF7B7
:1059A00033FD02464FF4F17353490020FDF766FAC8
:1059B0006BF307044E46FAF79DFEF6E6290C41F21A
:1059C00088308142DBD9FAF71FFD024640F2E91325
:1059D0004A490020FDF752FA6AF307054E460220B5
:1059E00066F31F4560F307040EE00228C7D0FAF7FC
:1059F0000BFD02464FF4FB7341490020FDF73EFAD0
:105A0000022060F307044E46FAF7AAFECDE6FAF745
:105A1000FBFC024640F205233A490020FDF72EFA2E
:105A2000FAF7F2FC024640F2062337490020FDF760
:105A300025FA6BF307046AF31F644E46FAF75AFE21
:105A4000C4F30740012805D00221D8F8140000F063
:105A500053F9AAE60121F8E760D1000840000020D0
:105A60008CCC00081B5B313B33326D5B2538645DA9
:105A70005B6D61696E5F7461736B5D5B494E464F30
:105A80005D6C696E653A25640D0AE5BC80E58D871D
:105A9000E9998DE997A8EFBC810D0A001B5B313BAA
:105AA00033326D5B2538645D5B6D61696E5F746177
:105AB000736B5D5B494E464F5D6C696E653A25645C
:105AC0000D0AE585B3E58D87E9998DE997A8EFBCC7
:105AD000810D0A0018F000088CDB0008D0DB0008FC
